:020000040800F2
:10000000E831002045010008F54700088334000866
:1000100061460008E50900081952000800000000C8
:10002000000000000000000000000000234B00085A
:10003000070B00080000000031480008254B0008AD
:100040005F0100085F0100085F0100085F01000810
:100050005F0100085F0100085F0100085F01000800
:100060005F0100085F0100085F0100085F010008F0
:100070005F0100085F0100085F0100085F010008E0
:10008000AD0A0008B90A00085F0100085F01000816
:100090005F0100085F0100085F0100085F010008C0
:1000A0005F0100085F0100085F0100085F010008B0
:1000B000F54B0008014C00080D4C00089134000875
:1000C000853400085F0100085F0100085F01000837
:1000D0005F0100085F010008A55100085F010008EA
:1000E0005F0100085F0100085F0100085F01000870
:1000F0005F0100085F0100085F0100085F01000860
:100100005F0100085F010008194C00085F0100084A
:100110004D4E00085F0100085F0100085F01000804
:100120005F0100085F010008C50A0008D10A000845
:10013000DFF80CD000F0AEFB004800472156000865
:10014000E83100200648804706480047FEE7FEE702
:10015000FEE7FEE7FEE7FEE7FEE7FEE7FEE7FEE777
:10016000AD4B000831010008202A04DB203A21FAB7
:1001700002F00021704721FA02F3D040C2F12002C0
:100180009140084319467047F0B480EA0102D40F49
:100190004200B2EB410F02D20246084611464A0025
:1001A00042D0C30DDDB2C1F3C752AD1A202D35DAEE
:1001B000C1F3160141F4000204B15242C5F1200618
:1001C00002FA06F12A411044B3EBD05F23D0C4B148
:1001D000012DA0EBC35009DCF0BC4FF0004202EA55
:1001E000C352DBB200F5000000F0C8BA400000F1D5
:1001F000807000EBC350A0F1807040EAD1704900DC
:1002000009E0490841EAC071A0EBC35000F50000C5
:10021000400800EBC350F0BC00F0A7BA61420122D5
:1002200002EB4101001BF6E7F0BC704781F0004192
:10023000AAE780F00040A7E780EA010210B502F0CB
:100240000043400022D04A001FD0010E01EB126192
:10025000C0F35600C2F3560240F4000042F400021C
:10026000A0FB022000047F39140400D0401C50EA97
:10027000124001D44000491EC2B20C0604EBD0105B
:10028000401C4008802A02D003E0002010BD20F06E
:100290000100002900DA0020184310BD30B480EAC4
:1002A000010202F0004530F0004221F0004013D07E
:1002B00090B1C30DD40DC2F31601C0F31600E41AB9
:1002C00041F4000140F400027D34914201D3641CEA
:1002D00000E04900002C02DA30BC002070474FF4E7
:1002E00000000023914201D3891A034340084FEADA
:1002F0004101F7D151B1914202D14FF0004105E0E7
:1003000002D24FF0010101E06FF0010103EBC45094
:10031000284430BC00F029BA420005D0C0F3C752CF
:100320005242914201DC0020704700EBC1507047FF
:100330002DE9FE4F804681EA0300C00F0C46009075
:1003400021F0004123F00045B8EB0200A94105D29D
:100350004046214690461C460B46024623F000408C
:10036000104347D0270DC7F30A00C3F30A51029088
:10037000401A019040286BDAC3F3130040F4801B4D
:100380000098924620B10023D2EB030A63EB0B0BDB
:1003900001985946C0F14002504600F0C5F90646A2
:1003A0000D4650465946019A00F0CDF910EB080071
:1003B0006141002487EA115284EAE7731A4340D06E
:1003C000009A62B3019A012A4FEA075215DC001B1A
:1003D00061EB02014FF0004202EA0752CDE9004210
:1003E000001C41F5801132462B4600F004FA03B0A0
:1003F000BDE8F08F40462146F9E7001B61EB0201A2
:10040000001C41F5801300185B412018A2F500176D
:1004100047EB030140EAD570B6196D4111E06D0854
:100420004FEA360645EAC0754FEA0752001B61EBFA
:100430000201001C41F5801149084FEA3000001903
:10044000514132462B4603B0BDE8F04F00F0C4B92D
:100450000098012240000023D0EB020263EBE0731E
:10046000009821464FEAE074B8EB000061EB04010C
:10047000E9E783F000435BE781F0004158E72DE9AD
:10048000FE4F81EA030404F0004421F0004100948F
:100490004FF0000B23F0004350EA01045ED052EA13
:1004A00003045BD0C3F30A54C1F30A552C44A4F2ED
:1004B000F3340194A0FB0254C1F3130141F4801101
:1004C000C3F3130343F4801301FB024400FB034E08
:1004D000840A970A44EA815447EA8357A4FB0768D1
:1004E00002958D0A05FB07854FEA932C04FB0C54FB
:1004F0002705029D4FEA065847EA1637B5EB08056F
:100500006EEB070C870E920E47EA811742EA8312C0
:10051000A7FB0201B6EB0B0164EB00042B0D43EAD1
:100520000C335E1844EB1C50DA465146E7FB0201DF
:10053000C5F313044FEA0B3343EA14534FEA043272
:10054000019C43EA0603A4F10C040294009CCDE94B
:1005500000B400F050F903B0BDE8F08F0020014670
:10056000F9E72DE9F04D81EA030404F0004B21F096
:10057000004514464FF0000A23F0004150EA0502FE
:1005800020D054EA01021DD0C5F30A570246C5F334
:100590001303C1F31300C1F30A5640F4801543F46A
:1005A0008013A7EB0608101BD64608F2FD3873EB44
:1005B000050002D308F1010801E092185B41B8F18F
:1005C000000F03DA00200146BDE8F08D00204FF453
:1005D0008011064684460EE0171B73EB050705D312
:1005E000121B63EB050306434CEA010C49084FEA72
:1005F000300092185B4150EA0107EDD152EA030046
:1006000012D082EA040083EA0501084305D0101BDA
:10061000AB4106D20122002306E000224FF0004346
:1006200002E06FF0010253101AEB06004CEB085188
:1006300010EB0A0041EB0B01BDE8F04D00F0CCB827
:10064000C10F80EAE0700844CA079623002100F039
:1006500095B896230022114600F090B820F0004093
:10066000C10DC0F3160040F400007F2901DA00201C
:100670007047962903DCC1F19601C840704796394E
:1006800088407047C1F30A5210B5C1F3130140F21C
:10069000FF3341F480119A4201DA002010BD40F28C
:1006A00033439A42A2F2334203DC5242FFF75CFD2D
:1006B00010BD904010BD00F0004230F000400AD064
:1006C000C10D01F56071C0F3160042EA0151C20884
:1006D00040071143704700200146704701F0004376
:1006E00030B421F0004150EA010206D00A0DA2F513
:1006F0006072C1F31301002A02DC30BC0020704795
:10070000440F44EAC104C100E01830BC00EBC25001
:1007100000F02BB8002801DBC0F10040002901DB0C
:10072000C1F1004181427047202A04DB203A00FADF
:1007300002F1002070479140C2F1200320FA03F338
:10074000194390407047202A06DBCB17203A41FA24
:1007500002F043EAE07306E041FA02F3D040C2F14E
:10076000200291400843194670470029A8BF7047EE
:10077000401C490008BF20F00100704710B4B0FAD7
:1007800080FC00FA0CF050EA010404BF10BC704772
:1007900049B1CCF1200421FA04F411FA0CF118BF8C
:1007A000012121430843A3EB0C01CB1D4FEA00615B
:1007B0004FEA102042BF002010BC704700EBC3502E
:1007C00010440029A4BF10BC7047401C490008BF5A
:1007D00020F0010010BC704710B5141E73F1000426
:1007E00008DA401C41F1000192185B411A4301D123
:1007F00020F0010010BD2DE9F04D92469B4611B14D
:10080000B1FA81F202E0B0FA80F220329046FFF7AE
:100810008BFF04460F4640EA0A0041EA0B015346AB
:100820005A46084313D0114653EA010019D0C8F1C3
:1008300040025046FFF798FC05460E465046594682
:100840004246FFF771FF084305D0012004E020462F
:100850003946BDE8F08D0020054346EAE0762C439A
:1008600037430A986305E40AA0EB08000022FD0A5A
:1008700044EA47540A3002D500200146E9E7010561
:1008800010196941DDE9084500196941BDE8F04DDD
:10089000A2E70000064C074D06E0E06840F00103C7
:1008A00094E8070098471034AC42F6D3FFF744FCB5
:1008B000645800088458000870B5044600688168D0
:1008C000C943C9071BD1816821F00101816001F092
:1008D000A3F805460EE001F09FF8401B022809D955
:1008E000A06A40F01000A062E06A40F00100E062FF
:1008F000012070BD20688068C043C007EBD0002095
:1009000070BD10B50146406A826A12F0500F05D0E2
:10091000006A026BBDE8104008461047816A41F446
:100920000071816201688968C1F3424107290CD1D5
:10093000C16851B9816A21F480718162816AC904F8
:1009400003D4816A41F00101816200F03FFB10BDD8
:1009500010B5406A816A41F040018162C16A41F08C
:100960000401C16200F034FB10BD10B5406A00F014
:100970002EFB10BDF8B5002604460096006881687D
:10098000C943C90727D0816841F00101816013483C
:1009900013490068B0FBF1F000E0401E0090002811
:1009A000FBD101F039F8054610E001F035F8401BA5
:1009B00002280BD9A06A40F01000A062E06A40F063
:1009C0000100E06284F824600120F8BD206880689E
:1009D000C043C007E9D10020F8BD00009800002006
:1009E00040420F00FEE700002DE9F0411B4E054696
:1009F0000C46308AA84208D1708AA04205D1B0883E
:100A0000002828D1F088002825D135827482012061
:100A10003070134855B14CB14FF6FF718C4207D17D
:100A20000122BDE8F041202100F0F0BF0022F8E7EC
:100A30008846002745453A464FF0200103D100F093
:100A4000E5FFB58004E000F0E1FF08EA4500B08072
:100A5000B483F7803770BDE8F08100004A000020C1
:100A6000001001400F4810B5816986B041F01001B7
:100A7000816180690C4C00F01000049020200090EF
:100A800001200190022003900020024602902021C4
:100A9000204600F0BBFF6946204600F0BDFE06B0D0
:100AA00010BD00000010024000100140014800F09D
:100AB00003BD0000A0030020014800F0FDBC0000C1
:100AC00088040020014800F0F7BC00004404002026
:100AD000014800F0F1BC0000CC04002030B590F8D3
:100AE00040500124AC40C56B6C600468636043688F
:100AF000102B036803D099600068C26030BD9A6013
:100B00000068C16030BD7047002202608280C280F0
:100B1000028181720848062905D2DFE801F004034A
:100B20000507090B0280704742807047828070473A
:100B3000C2807047028170476C00002010B5827A35
:100B40001B4B062A23D2DFE802F022030823282DBC
:100B5000184A12681B8892B204E04FF08042526A31
:100B60005B8892B283800389038942F21074D31A9E
:100B7000C380C388A34201D9C388C3800281C388CC
:100B80004B43C380838802EB03424A43026010BD9B
:100B9000094A12689B8892B2E4E7084A1268DB8827
:100BA00092B2DFE7064A12681B8992B2DAE70000C8
:100BB0006C000020242C0140240400402408004044
:100BC000240C00402DE9F04704460846FFF741FD9C
:100BD00001462046FFF762FB8C498D4D8D4C8842C3
:100BE00014DDFFF768FD8C4A8C4BFFF742FCFFF7E2
:100BF00075FDFFF760FD2A46894BFFF7B2FC002226
:100C00002346FFF73CFC0022864B17E08649874EBF
:100C1000884216DBFFF74FFD854A864BFFF729FC1C
:100C2000FFF75CFDFFF747FD3246834BFFF799FC6A
:100C300000222346FFF723FC0022804BFFF778FBBE
:100C4000DAE07F49DFF8FCA1DFF8FC81884215DBA0
:100C5000FFF731FD4FEA6A027C4BFFF70AFCFFF712
:100C60003DFDFFF728FD52464346FFF77AFC002280
:100C70002346FFF704FC0022754BDFE77549DFF8D8
:100C8000D891764F884214DDFFF715FD744A754BF5
:100C9000FFF7EFFBFFF722FDFFF70DFD4A463B464E
:100CA000FFF75FFC00222346FFF7E9FB00226E4BB3
:100CB000C4E76E49884214DDFFF7FDFC6C4A6D4BBA
:100CC000FFF7D7FBFFF70AFDFFF7F5FC4A463B4667
:100CD000FFF747FC00222346FFF7D1FB0022664BBB
:100CE000ACE76649664F884214DDFFF7E4FC654ACD
:100CF000654BFFF7BEFBFFF7F1FCFFF7DCFC52464C
:100D00003B46FFF72EFC00222346FFF7B8FB0022EC
:100D10005E4B93E75E49884215DDFFF7CCFC444A01
:100D20005C4B5242FFF7A5FBFFF7D8FCFFF7C3FC73
:100D30003246594BFFF715FC00222346FFF79FFB75
:100D40000022564B7AE75649884214DBFFF7B3FC82
:100D50002A46544BFFF78DFBFFF7C0FCFFF7ABFCB7
:100D600052463B46FFF7FDFB00222346FFF787FB79
:100D700000224D4B62E73E4D4C496D42884214DBE8
:100D8000FFF799FC2A464A4BFFF773FBFFF7A6FCD7
:100D9000FFF791FC52464346FFF7E3FB0022234650
:100DA000FFF76DFB0022234648E74249884214DBE7
:100DB000FFF781FC4A46404BFFF75BFBFFF78EFCD9
:100DC000FFF779FC2A463D4BFFF7CBFB0022234679
:100DD000FFF755FB00223A4B30E73A49884213DBD4
:100DE000FFF724FAFFF767FC374A384BFFF7B9FBE8
:100DF00000222346FFF743FBFFF744FCC0B2642800
:100E000000D96420BDE8F0870020FBE785EB814036
:100E1000EC51B81E000024403D0AD7A3703D10409D
:100E200085EBC13F0080564052B87E407B14AE47F0
:100E3000D7A3703D0AD70F40E17AB43F0000544079
:100E400048E17A40B81E85EB51B8AE3F285C0F40B0
:100E50000080514014AE77409A9999999999A93F89
:100E6000F6285C8FC2F50E4000004E40E17A7440D7
:100E70008FC2F5285C8F0E40000049405C8F7240A5
:100E800051B89E3F52B81E85EB510E4000004440C1
:100E9000AE477140F5280E40E17A943F00003E4095
:100EA000295C6F4085EB0D40000034401F856B408E
:100EB000A3700D40CDCC5C4099990B40A370CD3F01
:100EC0000000144000004040CDCCCCCCCCCCDC3F6A
:100ED000F8B50023009390F824201C46012A12D074
:100EE000012280F824204A681F26072A0DD20568AF
:100EF0006F6B521E02EB82029640B7430E6896401B
:100F000037436F6319E00220F8BD05680D2A0AD245
:100F10002F6BD21F02EB82029640B7430E689640B9
:100F200037432F6309E0EF6A0D3A02EB82029640E5
:100F3000B7430E6896403743EF620A680726056894
:100F40000A2A0AD3EF680A3A02EB42029640B743F4
:100F50008E6896403743EF6008E02F6902EB42024B
:100F60009640B7438E68964037432F610A68102A2F
:100F700001D0112A20D1124D0268AA4217D19568DA
:100F80002D0219D4956845F400059560096810296B
:100F900012D10C490C4A0968B1FBF2F101EB810155
:100FA000490000E0491E00910029FBD104E0816A5C
:100FB00041F020018162012380F824401846F8BDE9
:100FC000002401409800002040420F007047704705
:100FD000704700002DE9F04104004FF0000514D0E7
:100FE000A06A002628B9E66284F82460204600F052
:100FF00083F82046FFF760FCA16A01F0100101436D
:1010000004D0A06A40F01000A0626AE0A16A21F456
:10101000885141F00201A162334923688B42E169A2
:1010200004D1B1F5402F01D14FF40021E7684FF40E
:10103000807C41EA470261680A43A168614508D0A3
:10104000012906D00021D4F814E0BEF1010F02D02E
:101050000AE06146F7E7C7B1A76A47F02007A76231
:10106000E76A47F00107E7625F6827F469470F43C3
:101070005F6021688B681D4F3B4013438B60A16804
:1010800061450BD0012909D00CE0DFF864E0A769C5
:101090000EEB47370F4347F40061E5E7218A0D0562
:1010A000A5F580152168CB6A23F470032B43CB622E
:1010B000216889680F4B1940914208D1E662A16A04
:1010C00021F0020141F00101A162BDE8F081A06AB6
:1010D00020F0020040F01000A062E06A40F0010041
:1010E000E0620120F1E70000003C0140FDF7E1FF74
:1010F00000E0FFFFFE0E1FFF30B5054600681E49E9
:1011000085B0884236D11D4CA06940F40070A061C2
:10111000A06900F400700490A06940F00400A06190
:10112000A069694600F0040004901020009003209C
:1011300001900390124800F06FFB606940F00100DD
:1011400060616069104C00F0010004900D4820605F
:1011500000206060A0608020E0608000206180004E
:1011600060612020A0610002E061204600F0C8FA22
:101170002C62656205B030BD0024014000100240C1
:1011800000080140080002404006002070B50446F7
:1011900090F8240001280DD0012084F82400204676
:1011A000FFF7E8FB01004FF0000205D084F824208F
:1011B000084670BD022070BDA06A40F2012398432A
:1011C00040F48070A0621F4D20681F4BA84218D1C8
:1011D0001E6816F4702F14D0A66A46F48016A66214
:1011E0001E68760505D5A66A26F4005646F4805694
:1011F000A662A66AF6040AD5E66A26F00606E66244
:1012000006E0A66A26F48016A6624668E9E7E2626E
:1012100084F824206FF00202026020688268C2F322
:101220004242072A05D1A84208D11A6812F4702F49
:1012300004D0826842F480128260B9E7826842F486
:10124000A002F9E700280140042401402DE9F047FD
:10125000894604463B4900683B4F0E1D9046884234
:1012600001D0B84207D1306810F4702F03D00125A7
:101270002846BDE8F08794F8240001280CD001200E
:1012800084F824002046FFF775FB05004FF00001AD
:1012900004D084F82410EBE70220EAE7A06A40F6C5
:1012A0000162904340F48070A0622068B84218D177
:1012B000326812F4702F14D0A06A40F48010A0623B
:1012C0003068400505D5A06A20F4005040F48050F5
:1012D000A062A06AC0040AD5E06A20F00600E062BD
:1012E00006E0A26A22F48012A2624068E9E7E162A5
:1012F00084F82410216A15488862216A1448C8625B
:10130000216A1448086321686FF0020008602068B1
:10131000816841F480718160216843464A464C31BE
:10132000206A00F02FFA20688168C1F34241072942
:10133000816803D041F48011816099E741F4A001F4
:10134000FAE70000002401400028014003090008DA
:101350006B0900085109000801680A6822F00E02B2
:101360000A6001680A6822F001020A6090F84020D1
:10137000012303FA02F1C26B516080F82130002191
:1013800080F82010084670472DE9F05F90F8211092
:101390000024022903D004218163012485E001682F
:1013A0000A6822F00E020A6001680A6822F001024F
:1013B0000A603F4E3E4FB215DFF8F4C0DFF8F09000
:1013C000DFF8ECA0DFF8E8B0DFF8E4E00168783F90
:1013D00013011502ACF1640CA9F15009AAF13C0A01
:1013E000ABF1280BAEF1140E4FF48018B14227D99F
:1013F000B9420ED0614512D049451DD0514518D093
:10140000594518D0714501D1424615E0294EB142E7
:1014100001D1012210E0274E1436B14201D1102231
:101420000AE0244E2836B14206D0224A3C3291428C
:1014300001D11A4600E02A461E49091F0A602BE026
:10144000B94213D0614517D0494522D051451DD02E
:1014500059451DD0714501D142461AE0B14202D131
:101460004FF0807215E0134EB14201D1012210E01D
:10147000104E1436B14201D110220AE00D4E28362A
:10148000B14206D00B4A3C32914201D11A4600E0EB
:101490002A46074980394A60012180F8211000213D
:1014A00080F82010416B01B188472046BDE8F09FCD
:1014B00080000240080402402DE9F05FC16B0B6818
:1014C00001680A68046C4FF0040808FA04F8844DB7
:1014D000844E854FDFF814C2DFF81492DFF814A2AF
:1014E000DFF814B2DFF814E218EA030F65D05FEA00
:1014F000427862D50A68920603D40A6822F0040290
:101500000A60DFF8F0814FF48062016808F1140886
:1015100013011402414524D9A9420DD0B1420FD084
:10152000B9421AD0614515D0494515D0514501D170
:10153000120312E0594501D104220EE0714501D198
:1015400040220AE06D4D1435A94206D06B4A28327C
:10155000914201D11A4600E022466749091F0A60FC
:1015600029E0A94213D0B14215D0B94220D061453B
:101570001BD049451BD0514502D14FF4800217E0E2
:10158000414502D14FF0806212E0594501D1042259
:101590000EE0714501D140220AE0584D1435A942B0
:1015A00006D0564A2832914201D11A4600E022461E
:1015B0004B4908394A60C16A71E04FF0020808FAE5
:1015C00004F818EA030F70D05FEA82786DD50A68D4
:1015D000920606D40A6822F00A020A60012180F805
:1015E0002110DFF810814FF40072016808F114082F
:1015F00013011402414524D9A9420DD0B1420FD0A4
:10160000B9421AD0614515D0494515D0514501D18F
:10161000120312E0594501D102220EE0714501D1B9
:1016200020220AE0354D1435A94206D0334A28322B
:10163000914201D11A4600E022462F49091F0A6053
:1016400029E0A94213D0B14215D0B94220D061455A
:101650001BD049451BD0514502D14FF4001217E071
:10166000414502D14FF0007212E0594501D10222EA
:101670000EE0714501D120220AE0204D1435A94227
:1016800006D01E4A2832914201D11A4600E0224675
:10169000134908394A60002180F82010816A002926
:1016A0001CD0BDE8F05F0847FFE70825A5401D42B4
:1016B00014D0120712D50A6822F00E020A6090F8C0
:1016C0004020C36B012101FA02F25A60816380F865
:1016D0002110002180F82010016BE0E7BDE8F09FA9
:1016E000080002401C00024030000240440002405A
:1016F000580002406C000240080402401C040240F2
:1017000030B560B11C4B01681422994209D21B4BC1
:101710000B44B3FBF2F292000264194A0AE0012082
:1017200030BD154B5B420B44B3FBF2F292000264F6
:10173000114A083AC263022280F821200A6843F65F
:10174000F0739A43F0E901342343D0E902452C4376
:101750002343046923434469234384692343134394
:101760000B60002141628162C16201634163012219
:1017700042770177084630BD08040240F8FFFDBFFC
:101780000000024070B5044690F8200000250128B2
:101790000CD0012084F8200094F821600020012E54
:1017A00006D084F820000225284670BD022070BDB6
:1017B000022684F82160A0632068066826F00106EE
:1017C00006602046FFF78AF9E06A00282068016871
:1017D00002D041F00E0106E021F004010160206812
:1017E000016841F00A0101602068016841F00101CF
:1017F0000160D9E770B5044600F00EF90546601C9B
:1018000002D004480078044400F006F9401BA042CE
:10181000FAD370BD8C0000202DE9F84FDFF8BC91A1
:10182000002309F1040A0AF1040B1C464FF00F08CB
:101830000BF1040E01270A68A7403A40BA4272D160
:10184000DFF89CC14D68A5EB0C0665452BD00DDC7F
:10185000032D34D005DC35B3012D19D0022D2FD145
:101860001BE0112D16D0122D2AD119E0B6F5881FD4
:1018700019D006DCB6F5803F15D0B6F5801F1FD114
:1018800011E0B6F5001F0ED0B6F5041F18D10AE01E
:10189000CB6815E0CB681B1D12E0CB6808330FE066
:1018A000CB680C330CE08B682BB1012B4FF0080395
:1018B00003D0476104E0042302E0076100E0002355
:1018C000FF2A01D8064601E000F104064FEA84052C
:1018D00001D9A5F12005376808FA05FC27EA0C07AD
:1018E00003FA05F547EA050737604D68ED006ED548
:1018F0003C4DAE6946F00106AE61AD6924F00306C9
:1019000005F001050095384D7719BE68A5072D0F24
:1019100008FA05FC26EA0C06DFF8D0C0604503D1C2
:101920004FF0000C25E052E0DFF8C4C0604502D162
:101930004FF0010C1DE0DFF8BCC0604502D14FF054
:10194000020C16E0DFF8B0C0604502D14FF0030C86
:101950000FE0DFF8A8C0604502D14FF0040C08E0AA
:10196000DFF89CC0604502D14FF0050C01E04FF05C
:10197000060C0CFA05FC4CEA060CC7F808C04D68CA
:10198000D9F80060ED034D4601D5164300E09643BB
:101990002E604D68DAF80060AD03554601D5164358
:1019A00000E096432E604D68DBF80060ED025D4676
:1019B00001D5164300E096432E604D68DEF80060C6
:1019C000AD02754601D5164300E096432E60641CB7
:1019D000102CFFF42FAFBDE8F88F00000004014089
:1019E00000001110001002400000014000080140FA
:1019F000000C01400010014000140140001801409B
:101A0000001C0140C2684A40C26070470AB10161CF
:101A100070470904FBE70000014880687047000038
:101A20008C0000207047704770B504460068456917
:101A3000466830490D420DD0F1050BD5216C41F0BF
:101A4000010121646FF4807141612068016841F4F3
:101A50000041016015F4813F09D0F00507D5206CE5
:101A600040F00200206421686FF40070486115F4B2
:101A7000823F28D0F00526D594F83E30618D94F849
:101A80003D00226B202B08D139B921280ED02928FE
:101A90000CD0282801D1212A08D0206C40F0040065
:101AA000206494F83E00102804D008E0204601F09D
:101AB000E7FF08E02068016841F4007101602168D7
:101AC0006FF48060486115F4843F09D0F00507D5B4
:101AD000206C40F00800206421686FF400604861C9
:101AE000206C002804D02046BDE8704001F0FEBC08
:101AF00070BD0000000101002DE9F05F026806469C
:101B0000D2F818805469556890F83E007449DFF89F
:101B1000D0A1DFF8CCB1DFF8CC918F1C0AF17E0A9E
:101B20000BF13E0B102812D0402810D00C425BD095
:101B3000A80559D5936930460021DB435B0700D5E2
:101B400001219269D243120648D5828947E014F0F8
:101B5000011F05D0A80503D5304601F064FF10E051
:101B60005F48801D044205D0A80503D5706CC0B243
:101B7000106106E00C4204D0A80502D5304601F001
:101B8000C5FE18EA090F14D014EA0A0F08D0680538
:101B900006D53C4206D13046BDE8F05F01F033BEC9
:101BA0003C421FD0A8051DD53046BDE8F05F01F0CE
:101BB000EABD14EA0B0F08D0680506D53C4206D1F1
:101BC0003046BDE8F05F01F087BD3C420AD0A80571
:101BD00008D53046BDE8F05F01F01ABD028B92B225
:101BE000FFF721FFBDE8F09F3D480E30044206D0CC
:101BF000A80504D53046BDE8F05F01F083BF18EAC0
:101C0000090F4FF0280334D014EA0A0F23D06805D7
:101C100021D53C4221D196F83D203046718D0029D6
:101C2000E0D0416A4C1C4462046809782161418D0E
:101C3000491E4185418D0029D4D1292AD2D101687C
:101C40004A6822F480624A602121016380F83D30B5
:101C500000F02FFAC6E73C42C4D0A805C2D5708D6B
:101C60000028BFD0706A411C716231680078086139
:101C700031E014EA0B0F22D0680520D53C4220D178
:101C800096F83D403046718D0029ABD01269416A0B
:101C90004D1C45620A70418D491E4185418D0029C8
:101CA000A0D12A2C9ED101684A6822F480624A6041
:101CB0002221016380F83D3000F0FAF992E73C42BE
:101CC00090D0A8058ED5708D00288BD01169706AD0
:101CD000421C72620170708D401E708582E70000A8
:101CE00002000100040010007047000070B50400FD
:101CF0001BD094F83D00002520B984F83C502046C4
:101D000000F090F9242084F83D002068016821F05B
:101D10000101016000F0A6FB404A6168914201D8D0
:101D20003F4900E03F49884201D2012070BD3E4951
:101D30002368B0FBF1F159606368934206D94FF410
:101D4000967359434FF47A73B1FBF3F12368491C3E
:101D500019626168914210D84900401EB0FBF1F24F
:101D6000521CC2F30B02042A01D2042022E0B0FB71
:101D7000F1F0401CC0F30B001CE0A268CAB301EBF9
:101D8000C10303EB0116431EB3FBF6F35B1C43F4E4
:101D900080431B0536D06AB301EBC10202EB01118F
:101DA000401EB0FBF1F0401CC0F30B0040F480403B
:101DB00040F400402168C861D4E907010843216864
:101DC0000860D4E90310084321688860D4E905015C
:101DD00008432168C8602068016841F00101016082
:101DE0002564202084F83D00256384F83E500020BF
:101DF00070BD00E008E001EB4106431EB3FBF6F3C3
:101E00005B1CC6E70120D5E701EB4101401EB0FB9A
:101E1000F1F0401CC0F30B00CAE70000A0860100EF
:101E200080841E0000093D0040420F00704770474B
:101E30007047000010B50068084988420DD1084974
:101E400001204870074802F0C7F9064802F00AFA74
:101E5000BDE81040034802F023BA10BD0054004012
:101E6000480000203002002000680349884202D167
:101E700002490120087070470054004048000020CB
:101E8000F8B50025DDE90676009590F83D40202C58
:101E90005CD12F4C46F2A81C2468B4FBFCF404EB84
:101EA000C40C0CEB04140094B4F1010CCDF800C088
:101EB00006D240F8305F2021417305730320F8BD3E
:101EC0000468A469E443A40701D46446ECE790F8ED
:101ED0003C40012C3AD0012480F83C400468D4F8FE
:101EE00000C05FEACC7C05D1D4F800C04CF0010CF6
:101EF000C4F800C00468D4F800C02CF4006CC4F826
:101F000000C0222480F83D40402480F83E40056413
:101F10004762068546850F4CC46241648264C3648F
:101F2000056501680A6842F480620A6001680A680F
:101F300042F480720A6080F83C50018D21B1006843
:101F4000416841F4E06141600020F8BD0220F8BD25
:101F5000980000200000FFFFF8B50025DDE90676B7
:101F6000009590F83D40202C55D12C4C46F2A81CF1
:101F70002468B4FBFCF404EBC40C0CEB04140094D4
:101F8000B4F1010CCDF800C006D240F8305F20213A
:101F9000417305730320F8BD0468A469E443A407F2
:101FA00001D46446ECE790F83C40012C33D0012486
:101FB00080F83C400468D4F800C05FEACC7C05D1CE
:101FC000D4F800C04CF0010CC4F800C00468D4F888
:101FD00000C02CF4006CC4F800C0212480F83D40FF
:101FE000402480F83E4005644762068546850C4CD7
:101FF000C46241648264C364056501680A6842F48E
:1020000080720A6080F83C500068416841F4E061E9
:1020100041600020F8BD0220F8BD000098000020BB
:102020000000FFFF00B500681D4985B0884234D12B
:102030001C49486840F0E06040F0020048601A48DF
:10204000C16941F40011C161C16901F40011049139
:10205000816941F0080181618069694600F00800EA
:1020600004904FF4407000901220019000200290E4
:10207000032003900D48FFF7CFFB012200211F2012
:1020800000F09EF81F2000F08FF801220021202090
:1020900000F096F8202000F087F805B000BD0000A1
:1020A000005400400000014000100240000C0140BC
:1020B0007047704702488168027811448160704718
:1020C0008C000020074810B5016841F01001016044
:1020D000032000F095F8002000F006F800F024F846
:1020E000002010BD0020024070B50D4D04464FF495
:1020F0007A712878B1FBF0F00A490968B1FBF0F079
:1021000000F006FC48B9102C07D200222146501ED0
:1021100000F056F800206C6070BD012070BD00001A
:102120008C000020980000201D4808B5816941F00E
:1021300001018161806900F001000090032000F03E
:102140005FF8002211466FF00B0000F039F8002212
:1021500011466FF00A0000F033F8002211466FF0CC
:10216000090000F02DF800221146501F00F028F859
:1021700000221146101F00F023F800221146901E85
:1021800000F01EF800221146501E00F019F8054913
:10219000486820F0E06040F00070486008BD000032
:1021A000001002400000014000F01F020121914098
:1021B0004009800000F1E020C0F8001170470000E5
:1021C000F0B40E4B1B68C3F30223C3F10704042CC5
:1021D00000D904241D1D072D01D2002300E0DB1EC1
:1021E000012606FA04F56D1E0D409D409E40761EA8
:1021F000164045EA0601F0BC02F0FDBA0CED00E025
:10220000064A00F0070110684FF6FF03184040EA45
:102210000120034908431060704700000CED00E006
:102220000000FA052DE9F84304460078344FC00752
:1022300052D0F8690025C00008D4F86940F08050F9
:10224000F861F869012500F0805000902D48016880
:10225000C90511D40168804641F480710160FFF71F
:10226000DBFB064604E0FFF7D7FB801B642822D87F
:10227000D8F80000C005F6D5386A10F4407020D0B8
:10228000A18801F4407181421BD0386A1E490122A5
:1022900020F440700A6000220A603862C00710D043
:1022A000FFF7BAFB064641F2883807E0FFF7B4FBB8
:1022B000811B414502D90320BDE8F883386A8007B5
:1022C000F4D5386A616820F44070084338621DB163
:1022D000F86920F08050F8612078800705D578688B
:1022E000A16820F44040084378602078C00605D5F6
:1022F0007868616920F48000084378600020DBE79B
:102300000010024000700040400442422DE9F047B6
:10231000DFF8348104460E46D8F8000000F00700CC
:10232000B0420CD2D8F8001021F007013143C8F8B0
:102330000010D8F8000000F00700B04260D120780B
:10234000424F800705D57868A16820F0F000084367
:1023500078602078C00742D06068012816D03968BC
:10236000022816D0890700294ADA796821F003018A
:1023700001437960FFF750FB0546606841F2883100
:1023800001280ED00228894617D024E03968890335
:10239000E9E78901E7E7FFF73FFB411B494501D921
:1023A00016E089467868C0F381000128F3D116E071
:1023B000FFF732FB411B49450AD87868C0F381001A
:1023C0000228F5D10BE0FFF727FB411B494502D955
:1023D0000320BDE8F087786810F00C0FF3D1D8F82F
:1023E0000010404601F00701B1420BD9016821F00D
:1023F000070131430160006800F00700B04201D0DE
:102400000120E6E72078400705D57868E16820F4E8
:10241000E060084378602078000706D57868216975
:1024200020F4605040EAC100786000F03BF8796821
:10243000074AC1F30311515CC840064908600020F7
:10244000FFF752FE0020C4E70020024000100240C7
:102450004C580008980000200148006870470000B0
:10246000980000200448054900684968044AC1F3FF
:102470000221515CC84070479800002000100240C3
:102480005C5800080448054900684968044AC1F3DB
:10249000C221515CC84070479800002000100240E3
:1024A0005C58000812A085B00FC88DE80F0014A07A
:1024B000144B006804905968134801F00C02042A78
:1024C00010D0082A0ED1C1F38342C9031DF80200BF
:1024D0000AD5596804AAC1F34041515C0A4A5043E5
:1024E000B0FBF1F005B0704708494843FAE7000037
:1024F00002030405060708090A0B0C0D0E0F101045
:10250000010200000010024000127A0000093D00A4
:102510002DE9F84F04460078B64DC00747D06868EB
:10252000C0F38100012807D06868C0F38100022849
:1025300009D16868C00306D52868800337D560686C
:1025400000286ED033E06068B0F5803F0BD010B14A
:10255000B0F5A02F11D0286820F4803028602868BA
:1025600020F4802002E0286840F480302860606811
:1025700088B1FFF751FA064609E0286840F4802048
:102580002860F0E7FFF748FA801B642873D82868B2
:102590008003F7D50BE0FFF73FFA064604E0FFF7AC
:1025A0003BFA801B6428F1D828688003F7D4207890
:1025B000DFF8448280074FF0010A4FF0000939D557
:1025C000686810F00C0F07D06868C0F3810002281B
:1025D00009D16868C00306D42868800713D520692C
:1025E00001281ED10FE02069A8B1C8F800A0FFF7AC
:1025F00013FA064604E0FFF70FFA801B0228C5D83D
:1026000028688007F7D52868616920F0F80040EA5B
:10261000C10028600EE0C8F80090FFF7FDF90646FB
:1026200005E0E5E0FFF7F8F9801B022823D82868C9
:102630008007F7D4207800072CD57049A069D8B15D
:10264000C1F800A0FFF7E8F9064604E0FFF7E4F957
:10265000801B02280FD8686A8007F7D568484FF4B6
:10266000FA510068B0FBF1F0009000BF0098411EE5
:102670000091FAD20EE07CE0C1F80090FFF7CCF9AF
:10268000064604E0FFF7C8F9801B022871D8686A83
:102690008007F7D4207840075BD5E8690027C000A1
:1026A00008D4E86940F08050E861E869012700F04B
:1026B0008050009053480168C90511D401688346D1
:1026C00041F480710160FFF7A7F9064604E0FFF7C7
:1026D000A3F9801B64284CD8DBF80000C005F6D5B0
:1026E000E06801280AD008B1052813D0286A20F034
:1026F00001002862286A20F0040002E0286A40F005
:1027000001002862E06841F2883B88B1FFF784F954
:10271000064609E0286A40F004002862EEE7FFF769
:102720007BF9811B59455BD8286A8007F7D50BE0F8
:10273000FFF772F9064604E0FFF76EF9811B594571
:102740004ED8286A8007F7D41FB1E86920F080507E
:10275000E861E069A8B36968C1F38101022947D043
:102760000228484606D0C8F86000FFF755F904462D
:1027700039E035E04746C8F86000FFF74DF90646F6
:1027800004E0FFF749F9801B022829D82868800156
:10279000F7D4206AB0F5803F05D16868A16820F4BD
:1027A000003008436860D4E908010843696821F4EF
:1027B000741108436860C7F860A0FFF72DF904465C
:1027C00005E013E0FFF728F9001B022808D8286865
:1027D0008001F7D50AE0FFF71FF9001B022802D994
:1027E0000320BDE8F88F28688001F4D40020F8E7C2
:1027F0000120F6E7001002400000424280044242FD
:1028000098000020007000404FF0E0210428086983
:1028100003D020F004000861704740F00400FAE79C
:102820002D48016811B10168491E01602B480168FB
:102830004268114306D0016843684A1E43F1FF31E4
:10284000026041602648016811B10168491E0160BB
:102850002448016811B10168491E016022480168DD
:1028600011B10168491E01602048016811B1016879
:10287000491E01601E48016811B10168491E0160CE
:102880001C48016811B10168491E01601A480168BD
:1028900011B10168491E01601848016811B1016851
:1028A000491E01601648018811B10188491E018046
:1028B0001448018811B10188491E0180124801881D
:1028C00011B10188491E01801048018811B10188A9
:1028D000491E018001F0B8B914000020200000203A
:1028E000080000202C0000203000002034000020D0
:1028F0000C00002010000020380000203C000020C8
:102900000000002002000020040000202800002019
:1029100010B5401EB0F1807F01D3012010BD4FF0F3
:10292000E02460610F21601701F065FF0020A061C5
:1029300007202061002010BD10B5FFF771FF10BD0A
:102940007047704710B590F83C20012A25D001222D
:1029500080F83C20CA688C6822F4407222434C689C
:1029600022F4806222430C6822F4006222430C6944
:1029700022F4805222434C6922F400522243896996
:1029800022F480420A43002322F400420A430168F1
:102990004A6480F83C30002010BD022010BD30B5E4
:1029A00090F83C20012A20D0012380F83C300222FC
:1029B00080F83D200268546824F070045460026876
:1029C00054680D682C4354600268946824F08004B5
:1029D00094600268946849680C43946080F83D30C4
:1029E000002180F83C10084630BD022030BD2DE9A2
:1029F000F0410D46040003D094F83D0018B108E002
:102A00000120BDE8F081002084F83C00204600F061
:102A100039F8022084F83D002068816821F0070120
:102A20008160211D206802F0FDF8206881688269BC
:102A3000066A2B68AF690B4340F203318A4342EACE
:102A40000722A968EF6911434FF6FC429143EA68F7
:102A500041EA07210A4329692F6A090141EA073738
:102A6000696817436D6926F0AA0242EA051211430C
:102A700083602068876120680162012084F83D003E
:102A80000020BEE72DE9F04704460068DFF86C91AE
:102A9000DFF86CA100265B4D032786B0B0F1804FB4
:102AA0003BD1E86940F00100E861E869564900F06F
:102AB00001000490486820F4407040F0E06040F469
:102AC00080704860A86940F00400A861A86900F01F
:102AD00004000490A86940F00800A861A86969464C
:102AE00000F0080004904FF40040CDE90006504685
:102AF000CDE90267FEF790FE0820CDE900066946A1
:102B00004846CDE90267FEF787FE002201211C201E
:102B1000FFF756FB1C20FFF747FB3C4920684FF0AE
:102B2000C00888421FD1E86940F00200E861E86906
:102B300000F002000490A86940F00400A861A869B0
:102B4000CDE9008600F004000296CDE903706946E5
:102B50005046FEF761FE012211461D20FFF730FBB3
:102B60001D20FFF721FB2A49206888421FD1E86910
:102B700040F00400E861E86900F004000490A869EE
:102B800040F00800A861A869CDE9008600F00800BF
:102B90000296CDE9037069464846FEF73DFE0222E3
:102BA00001211E20FFF70CFB1E20FFF7FDFA19493B
:102BB000206888421FD1E86940F00800E861E869B0
:102BC00000F008000490A86940F00400A861A8691A
:102BD000CDE9007600F004000296CDE90370694665
:102BE0005046FEF719FE032201213220FFF7E8FAD2
:102BF0003220FFF7D9FA06B0BDE8F087000C01409B
:102C000000080140001002400000014000040040A4
:102C100000080040000C004010B50446006889B16F
:102C2000042904D00122002102F042F82068012288
:102C3000042102F03DF82068016841F001010160C3
:102C4000002010BD01220021F3E7704770B5044653
:102C5000006801694FF00005C943890715D4C168B0
:102C6000C943890711D4E91E01610120207720683A
:102C700080698007204602D0FFF7E7FF04E000F0FC
:102C800098F8204600F044F9257720680169C94387
:102C9000490717D4C168C943490713D46FF0040129
:102CA0000161022020772068806910F4407F20466F
:102CB00002D0FFF7CAFF04E000F07BF8204600F0E6
:102CC00027F9257720680169C943090716D4C16827
:102CD000C943090712D46FF008010161042020776D
:102CE0002068C0698007204602D0FFF7AEFF04E0ED
:102CF00000F05FF8204600F00BF9257720680169A5
:102D0000C943C90617D4C168C943C90613D46FF0B3
:102D100010010161082020772068C06910F4407F0D
:102D2000204602D0FFF791FF04E000F042F8204671
:102D300000F0EEF8257720680169C943C90708D17A
:102D4000C168C943C90704D1891E0161204600F04A
:102D5000FDF820680169C943090609D4C168C9435F
:102D6000090605D46FF0800101612046FFF7E8FDF8
:102D700020680169C943490609D4C168C9434906A5
:102D800005D46FF040010161204600F027F920686A
:102D90000169C94389060BD4C168C943890607D4B0
:102DA0006FF0200101612046BDE87040FFF7C9BD0A
:102DB00070BD704770B5044690F83C000D46012880
:102DC0000DD0012684F83C60022084F83D0042B119
:102DD000042A18D0082A2AD00C2A4DD139E0022022
:102DE00070BD206801F070FF2068816941F0080122
:102DF00081612068816921F0040181612068816915
:102E00002A69114311E0206801F08EFF2068816972
:102E100041F4006181612068816921F480618161F0
:102E2000206881692A6941EA0221816124E02068E1
:102E300001F0B0FF2068C16941F00801C16120685C
:102E4000C16921F00401C1612068C1692A69114387
:102E500011E0206801F0D2FF2068C16941F40061EF
:102E6000C1612068C16921F48061C1612068C169C4
:102E70002A6941EA0221C16184F83D60002084F89A
:102E80003C0070BD10B5040003D094F83D0010B1B3
:102E900007E0012010BD002084F83C00204600F02F
:102EA0000DF8022084F83D00211D206801F0BAFED3
:102EB000012084F83D00002010BD000000B500682E
:102EC000104985B088421AD10F48816941F40051F8
:102ED0008161816901F400510491816941F010011F
:102EE00081618069694600F0100004904FF47070B1
:102EF00000900220019003900448FEF78DFC05B07D
:102F000000BD0000003401400010024000100140EC
:102F10007047000010B504460068012201F0C8FEA9
:102F200008482168814202D00748814203D1486C99
:102F300040F4004048642068016841F001010160EC
:102F4000002010BD002C01400034014000681E4AE2
:102F50001E49904208D10068C006088801D5401E6D
:102F600000E0401C08807047B0F1804F08D0184A3C
:102F7000904211D10068C00688880AD5401E09E039
:102F80000068C006488801D5401E00E0401C48800B
:102F90007047401C888070470E4A904208D10068F4
:102FA000C006C88801D5401E00E0401CC88070479C
:102FB000094A9042FBD10068C006088901D5401E2D
:102FC00000E0401C08817047002C01406C0000208C
:102FD0000004004000080040000C0040704710B59D
:102FE00004460068416994F83920C1F3C011212AD0
:102FF0000BD151B1416921F080014161206B08B1D1
:10300000FEF7AAF9204601F08FFF2068416994F885
:103010003A20C1F38011222A0BD151B1416921F02C
:1030200040014161606B08B1FEF796F9204601F05E
:103030006DFF002010BD01680A680A68D243D207FC
:1030400003D14A686FF001020A6001680A68D2433E
:10305000920703D44A686FF002020A6001680A68A6
:10306000D243520703D44A686FF004020A60006832
:103070000168C943090703D4C1686FF00801016002
:103080007047000070B5026804461068D168536943
:1030900010F00F0F51D003F0010501F49076354385
:1030A0005DD0C20705D0CA0503D5E26B42F001022C
:1030B000E263420705D5DA0703D0E26B42F0020271
:1030C000E263820705D5DA0703D0E26B42F004021F
:1030D000E263020705D5DA0703D0E26B42F008028B
:1030E000E263E26B002A34D0800604D5880602D55C
:1030F000204601F022FF20684069E16BC0F3801098
:1031000001F008010143204624D001F0FFFE2068B1
:10311000416949061AD5416921F040014161606B5E
:10312000A0B11B494163606BFEF72EF9002810D057
:10313000606B416BBDE87040084783060FD58B0676
:103140000DD52046BDE8704001F0F7BE2046FFF7E0
:1031500072FF70BDFFF76FFF0020E06370BD0306D4
:1031600006D50B0604D52046BDE8704001F0E8BF47
:103170004006F3D54806F1D5D168204621F040013C
:10318000D160202184F8391000F07AF970BD000078
:103190006D4E000870B5040004D094F83900002585
:1031A00010B106E0012070BD84F83850204600F0D0
:1031B00023F8242084F839002068C16821F40051E4
:1031C000C160204601F004FF2068016921F49041AC
:1031D00001612068416921F02A0141612068C168CC
:1031E00041F40051C160E563202084F8390084F87F
:1031F0003A00002070BD00002DE9F0470446006849
:103200006C4A00266C4D0221032786B04FF010094E
:103210004FF08008904263D1E86940F40030E861E3
:10322000E86900F400300490A86940F00400A86147
:10323000A869624C00F0040004900420CDE900016C
:10324000039769462046FEF7E7FA0820CDE9000615
:1032500069462046CDE90267FEF7DEFA686940F06C
:10326000010068616869574C00F001000490C4E9EE
:103270000268266152486661C4E9000947464FF476
:103280000058C4E906682046FEF73AFA4E4D4C480D
:103290002C6365624D4C1438C4E90006C4E902672A
:1032A00026616661C4E906682046FEF729FA6C6368
:1032B0000022012110206562FEF782FF1020FEF738
:1032C00073FF002201211120FEF77AFF1120FEF783
:1032D0006BFF002201212620FEF772FF262064E00A
:1032E0003B4A904263D1E86940F40020E861E86914
:1032F00000F400200490A86940F01000A861A869BB
:10330000DFF8D0A000F0100004901015CDE9000106
:10331000039769465046FEF77FFA4FF40060CDE907
:10332000000669465046CDE90267FEF775FA6869FE
:1033300040F0020068616869284D00F002000490C6
:10334000C5E902682E616E61AE612348EE61C5E990
:10335000000947462846FEF7D3F925636C621E48EC
:103360001F4D2838C5E90006C5E902672E616E6168
:10337000AE612846EE61FEF7C3F9656300220121C4
:103380003A206C62FEF71CFF3A20FEF70DFF002288
:1033900001213B20FEF714FF3B20FEF705FF002232
:1033A00001213420FEF70CFF3420FEF7FDFE06B0AD
:1033B000BDE8F087004400400010024000080140D2
:1033C0008000024088040020C0020020A0030020EA
:1033D000004C00400010014058040240CC04002082
:1033E0004404002037B5044690F83A0082B01346F2
:1033F00020283AD1039AAAB3A3B394F8380001283D
:1034000033D0012084F83800A262A3850025E5634B
:10341000222084F83A00616B15488862616B154878
:10342000C862616B14480863606B45632168606B18
:10343000091DFEF7A7F9206801684168009184F82A
:103440003850C16841F48071C1602068416941F021
:10345000010141612068416941F040014161002062
:1034600005B030BDFFE70120FAE70220F8E70000D1
:10347000C74E0008034F00087D4E00087047704794
:103480007047FEE70148FEF7CFBA0000840600202F
:103490000148FEF731BB00008406002010B5406AE9
:1034A00001680A6822F480620A6000214185426B4B
:1034B0005163826B516390F83D302022602B80F87D
:1034C0003D2080F83E1007D001680A6822F0010212
:1034D0000A60FEF709FC10BD016401680A6822F069
:1034E00001020A60FEF79EFA10BD000070B590F868
:1034F0003D10044600262025006829292DD02A29C0
:103500002BD094F83D10602904D04168090501D4FE
:1035100084F83D50266384F83E60016821F4006120
:10352000016020684168090537D5416821F40061D0
:103530004160606B344990F82120012A12D0416328
:10354000606BFDF721FF38B32068016821F00101AD
:10355000016084F83D50606B1CE02663282184F8EC
:103560003D10DAE7A06B4163A06BFDF70DFF98B14A
:1035700020684169C943490604D40169606A421C54
:10358000626201702068016821F00101016084F825
:103590003D50A06B416B88470FE094F83D106029C7
:1035A0001DD04169C943490604D40169606A421CBF
:1035B000626201702046FEF797FB94F83D002828D0
:1035C0000CD1206C400709D51048E062266384F8CE
:1035D0003D5084F83E602046FEF728FC70BD84F81C
:1035E0003D5026644169C943490604D40169606AB3
:1035F000421C626201702068016821F001010160D3
:103600002046FEF70FFAD8E79D3400080000FFFFC0
:1036100010B5C26A448D2F4B0168032C03D0448D32
:10362000022C15D00AE0042A03D0082A01D09A42BD
:1036300003D10A6822F480620A6001680A69416A5B
:103640004B1C43620A70418D491E4185002010BD0C
:10365000042A12D0082A10D09A420ED0022A0A68F0
:1036600002D022F4806201E042F480620A600168C4
:103670004A6822F440724A6008E04A6822F44072C4
:103680004A6001680A6842F400720A6001680A69C7
:10369000416A4B1C43620A70418D491E4185016895
:1036A0000A69416A4B1C43620A70418D491E41857B
:1036B000202180F83D100021016390F83E2080F821
:1036C0003E10402A02D0FEF7B2FBBFE7FEF7B2FB86
:1036D000BCE700000000FFFF10B590F83D10222964
:1036E0004CD1418D032909D901680A69416A4B1CF3
:1036F00043620A70418D491E41853FE0022909D08D
:10370000032907D0C16A022901680A6818D022F487
:10371000806217E0C16A022901680A6807D022F4B2
:1037200080620A6001680A6842F4006201E042F4C3
:1037300080620A600068416821F4806141601DE098
:1037400042F480620A6001684A6822F4E0624A60DA
:1037500001680A69416A4B1C43620A70418D491E27
:103760004185202180F83D100021016390F83E2022
:1037700080F83E10402A03D0FEF759FB002010BD10
:10378000FEF758FBFAE710B5C16A90F83D20212AF0
:1037900021D1428D4AB1416A4A1C426202680978CD
:1037A0001161418D491E418515E020230022042925
:1037B00013D0082911D011F5803F0ED001684C6854
:1037C00024F4E0644C601121016380F83E2080F80D
:1037D0003D30FEF72DFB002010BD01684C6824F43D
:1037E000E0644C6001680C6844F400740C6002638F
:1037F00080F83D3090F83E1080F83E204029E8D116
:10380000FEF732FBE7E710B590F83D2090F83E3028
:10381000C16A048D24B1212A33D0402B2FD073E00C
:10382000212AFAD120230022042912D0082910D0FD
:1038300011F5803F0DD001684C6824F4E0644C60C1
:103840001121016380F83E2080F83D30FEF7F0FA48
:103850005AE001684C6824F4E0644C6001680C682C
:1038600044F400740C60026380F83D3090F83E1020
:1038700080F83E204029E9D1FEF7F6FA44E0222AFA
:1038800042D1418D21B190F83E10402906D032E05E
:103890000068416821F48061416035E0016D31B11B
:1038A000016D012911D0016D022915D02CE0C16CE8
:1038B0000129816C02D0C1F3072108E00268C9B276
:1038C0001161016D891C01651EE0816CC9B202683D
:1038D0001161016D491CF6E790F83D10222904D0D2
:1038E00090F83D10212906D00EE00068016841F4EF
:1038F0008071016008E0416A4A1C426202680978EE
:103900001161418D491E4185002010BD78B590F8A8
:103910003E50C26A046B90F83D6000230168222E7D
:1039200006D1066D0EB9402D02D0056D25B107E018
:103930004869886900901CE00569B5F5404F1AD0C8
:10394000458D85B3458D012D20D0428D022A4AD068
:103950000A6842F480620A6001684A68120503D569
:103960004A6842F480524A6001684A698969009154
:103970000365002078BD4A698A6900920A6842F4AA
:1039800080720A60016D491C0165F2E712F5803F03
:103990000AD0042A21D0082A1FD0122C1DD0C26AB6
:1039A000022A09D114E00BE00A6822F480620A605E
:1039B00001684A68120503D50A6822F480620AE0A9
:1039C0004A698A6900920A6842F400720A60CFE785
:1039D0000A6842F480620A60C6E70A6822F48062DC
:1039E0000A600168ECE7C26A022A0A680BD042F456
:1039F00000620A6001684A698A6900920A6822F4D2
:103A000080620A6006E042F480620A6001684A69E6
:103A10008969009101684A681205A9D54A6842F48B
:103A200080524A60A4E790F83E10402909D001690D
:103A3000B1F5804F10D0016D99B1016D012915D0FC
:103A40001CE0016D19B9416C01F0FE0114E0416CFC
:103A5000C9B241F001010FE090F83D102129F6D1E3
:103A6000F1E7416CF02201F4407103E0416CF12276
:103A700001F4407142EAD1110068016100207047F1
:103A80002DE9F04190F83D30C26A00251C4F2026F8
:103A900001686FF48064042A01D0082A01D1282B20
:103AA00005D0212B17D04C610020BDE8F081C76202
:103AB0004A6822F4E0624A6001684C6101680A6861
:103AC00022F480620A60056380F83D6080F83E5011
:103AD000FEF7ACF9E8E7C7622122026380F83D6097
:103AE00080F83E504A6822F4E0624A6001684C6106
:103AF00001680A6822F480620A60FEF7DAFAD3E706
:103B00000000FFFF38B590F83D100268536823F4B9
:103B1000E06353600268002354690094146844F021
:103B2000010414600268146824F48064146002685C
:103B3000546824050BD590F83D40222C2BD090F8EA
:103B40003D402A2C27D0446B246864684485448D0A
:103B5000E4B15469E443640707D41469426A551C0C
:103B600045621470428D521E428502685469E443D6
:103B7000640607D41569426A541C44621570428D6C
:103B8000521E4285026C42F004020264026C22B1B1
:103B9000FFF7ACFC1FE0846BD6E72022282909D070
:103BA0002A2907D0292905D0046B222C0CD02229E0
:103BB0000AD010E00949C162036380F83D2080F813
:103BC0003E30FEF733F906E0036380F83D2080F8CD
:103BD0003E30FEF76DFA002038BD00000000FFFF08
:103BE0000160426083600021C160016141617047F2
:103BF00070B504461046FCF719FBE060206901210E
:103C0000FCF78AFBE168FCF714FB6169FCF7BCFA7E
:103C1000A168FCF711FBE16805466068FCF70CFB46
:103C200021690646E068FCF701FB2168FCF704FB0C
:103C30003146FCF7A9FA2946FCF7A6FA2169616129
:103C4000E168216170BD000070B5264CE08810B1BC
:103C5000E088401EE080608910B16089401E60816C
:103C6000E08910B1E089401EE08120784FF6FF75B1
:103C700078B9A08868B1E08858B920211A48FDF7C2
:103C8000C1FEA088A84202D0A088401EA080A08BC0
:103C9000E0806078154E78B9208968B1608958B99C
:103CA00002213046FDF7AEFE2089A84202D02089CD
:103CB000401E2081E08B6081A078002811D1A0896E
:103CC00000280ED0E08900280BD101213046FDF7F5
:103CD00099FEA089A84202D0A089401EA081208C14
:103CE000E08170BD4A00002000100140000C01403E
:103CF00070B5FEF7E7F900F01CFF00F00FFC00F0D4
:103D0000B9FC00F0E9FC00F019FD00F049FD00F0FD
:103D1000E5FA3649364800F0E9F9364C364821468E
:103D200000F0E4F92146354800F0E0F92146344836
:103D300000F0DCF900F072FC00F048FC642131482E
:103D400000F0B2FE1E21304800F065FD00F01CFBC3
:103D500000F054FB00F082FB00F0B0FB04212B4884
:103D6000FCF7D2FE02212A48FCF7CEFE05212948A5
:103D7000FCF7CAFE03212848FCF7C6FE274C284D55
:103D8000284E23462A4631462748FFF729FF234677
:103D90002A4631462548FFF723FF23462A46314667
:103DA0002348FFF71DFF23462A4631462148FFF7E7
:103DB00017FFFCF757FE00F017F900F075F94FF404
:103DC0001670FDF717FD00F0BBFA1B4800F0A8F9CC
:103DD00032210220FCF708FE3221022000F0C6F852
:103DE000BDE870403221022000F020B99A99993E36
:103DF000F0000020CDCCCC3DC0000020CC00002045
:103E0000D80000200C0200202402002084010020A1
:103E1000900100209C010020A8010020FB22C9C0C5
:103E20003C8318C08126D6C1240100203C0100201B
:103E3000540100206C010020300200202DE9F041E7
:103E4000044600681F4D2946FCF7F6F98046606875
:103E50002946FCF7F1F90746A0682946FCF7ECF97A
:103E60001949FCF7E9F9194D064629464046FCF781
:103E700015FA804629463846FCF710FA07462946C7
:103E80003046FCF70BFA064639464046FCF7CEF9B9
:103E900005463146FCF7CAF9E06039464046FCF772
:103EA00073F907463146FCF76FF920613846314611
:103EB000FCF7BCF9606128463146FCF765F9A06162
:103EC000BDE8F081000070420E2D323EECA19D3E17
:103ED0002DE9F04101690446C068FCF755F96169B4
:103EE000FCF752F9A169FCF74FF96FF0010529467B
:103EF000FCF712FA1A4E3146FCF7D0F9194F394641
:103F0000FCF79AF92060E1682069FCF78FF9616994
:103F1000FCF73AF9A169FCF789F92946FCF7FCF9A5
:103F20003146FCF7BBF93946FCF786F96060E16879
:103F30002069FCF77BF96169FCF778F9A169FCF766
:103F400023F92946FCF7E8F93146FCF7A7F9394689
:103F5000FCF772F90449FCF7A1F9A060BDE8F08113
:103F600000007042ECA19D3E0E2D323E2DE9F04145
:103F70001B4E05460C46B08AA84208D1F08AA042E2
:103F800005D13089002828D17089002825D1B58233
:103F9000F48201207070134855B14CB14FF6FF7197
:103FA0008C4207D10122BDE8F0410221FDF72EBD70
:103FB0000022F8E78846002745453A464FF00201BF
:103FC00003D1FDF723FD358104E0FDF71FFD08EA6D
:103FD00045003081F48377817770BDE8F08100007F
:103FE0004A000020000C01400E4810B5816986B0DF
:103FF00041F0080181618069012100F0080004900E
:104000000220CDE9000103900020074C02460290F7
:1040100002212046FDF7FAFC69462046FDF7FCFB2D
:1040200006B010BD00100240000C01402DE9F04127
:104030001B4E05460C46308BA84208D1708BA0421F
:1040400005D1B089002828D1F089002825D13583F1
:1040500074830120B070134855B14CB14FF6FF7115
:104060008C4207D10122BDE8F0410121FDF7CEBC11
:104070000022F8E78846002745453A464FF00101FF
:1040800003D1FDF7C3FCB58104E0FDF7BFFC08EAEE
:104090004500B0813484F781B770BDE8F08100003D
:1040A0004A000020000C01400E4810B5816986B01E
:1040B00041F00801816180690B4C00F00800049018
:1040C00001200090019002200390002002460290FF
:1040D00001212046FDF79AFC69462046FDF79CFB2E
:1040E00006B010BD00100240000C0140016000212C
:1040F00041608160704770B5016804464FF07E50A2
:10410000FCF794F86168FCF797F8A1680546206809
:10411000FCF792F82946FCF737F86060606870BDDC
:104120002DE9FE4F04466420FDF764FB284E4FF056
:10413000020A8DF808A00025357001270DF1080846
:10414000CDE900873B466B22D0212248FDF704FFD2
:1041500030780028FCD018208DF808003570CDE9A3
:10416000008701231B22D0211A48FDF7F5FE307885
:104170000028FCD08DF808503570B9464746012319
:104180001C22D0211348CDE90089FDF7E5FE3078E7
:104190000028FCD08DF808A03570CDE90079012306
:1041A0006B22D0210B48FDF7D7FE30780028FCD0D9
:1041B00025806580A580E58025816581A5812561B3
:1041C0006561A561E56125626562E563BDE8FE8F15
:1041D000480000208406002010B5044690F84100F5
:1041E00094F8401000EB012024F8300BE07CA17C17
:1041F00000EB012024F82E0C607D217D00EB0120D6
:1042000024F82C0CE07DA17D00EB012024F82A0C81
:1042100034F92A0CFCF714FA0F49FCF73FF8FCF7C5
:104220004AFA0E4A0E4BFCF783F8FCF757FAE060A7
:10423000607E217E00EB012024F8280CE07EA17E28
:1042400000EB012024F8260C607F217F00EB012089
:1042500024F8240C10BD00000000AA43A4703D0AFD
:10426000D743424070B50446B0F90000FCF7E8F9C6
:104270000A4D2946FCF712F82061B4F90200FCF758
:10428000DFF92946FCF70AF86061B4F90400FCF78D
:10429000D7F92946FCF702F8A06170BD00CCCC44E8
:1042A00070B50446B0F90800FCF7CAF90A4D294672
:1042B000FBF7F4FFE061B4F90A00FCF7C1F9294605
:1042C000FBF7ECFF2062B4F90C00FCF7B9F92946C2
:1042D000FBF7E4FF606270BD14AE6A443EB5164859
:1042E0001449012501608915C0E9021500214161C9
:1042F00002244FF460220461C2614160FCF76AFE4F
:104300000420CDE900050520029069460A48FCF723
:10431000DFFD1120CDE9000469460748FCF7D8FD10
:10432000022206490448FCF791FF0348FCF72EFFE0
:104330003EBD000000240140100600204000002087
:104340000D4882B0816941F00101816180690B49AA
:1043500000F0010000900A484FF4804201600949D2
:10436000416000218160C0E9031241618161C16146
:10437000016202B0FDF7BABC0010024000540040D8
:1043800084060020801A06001A4810B581698AB098
:1043900041F0010181618069174C00F00100099032
:1043A0004FF080430020C4E900304FF6FF71C4E9AC
:1043B000020120610321CDE90010012202920F21A8
:1043C000CDE90301CDE90502CDE90701586269464F
:1043D0002046FEF70CFB21686FF0010008612068A1
:1043E000C16841F00101C16004212046FEF714FCC0
:1043F0000AB010BD001002405005002010B5164C48
:104400008AB0144B0020C4E900304FF6FF71C4E9B4
:10441000020120610321CDE90010012202920F2147
:10442000CDE90301CDE90502CDE9070158626946EE
:104430002046FEF7DCFA21686FF001000861206871
:10444000C16841F00101C16004212046FEF7E4FB90
:104450000AB010BD000400409005002010B5164CB5
:104460008AB0144B0020C4E900304FF6FF71C4E954
:10447000020120610321CDE90010012202920F21E7
:10448000CDE90301CDE90502CDE90701586269468E
:104490002046FEF7ACFA21686FF001000861206841
:1044A000C16841F00101C16004212046FEF7B4FB60
:1044B0000AB010BD000800401005002010B5164CD1
:1044C0008AB0144B0020C4E900304FF6FF71C4E9F4
:1044D000020120610321CDE90010012202920F2187
:1044E000CDE90301CDE90502CDE90701586269462E
:1044F0002046FEF77CFA21686FF001000861206811
:10450000C16841F00101C16004212046FEF784FB2F
:104510000AB010BD000C0040D005002010B52A489C
:1045200090B0284901600221416040F2CF7100241F
:10453000C0E90314846044618461FEF7A3FC0E9417
:104540000EA921480F94FEF72AFA602000904FF43C
:10455000FA60CDE9010403940494059400226946AD
:1045600019480694FEF726FC042269461648FEF711
:1045700021FC082269461448FEF71CFC0C226946FF
:104580001148FEF717FC0794089409944FF4005063
:104590000A94CDE90B4007A90B480D94FEF7D2F918
:1045A00000210948FEF7B6FC04210748FEF7B2FCDB
:1045B00008210548FEF7AEFC0C210348FEF7AAFCD3
:1045C00010B010BD003401408002002010B5114C25
:1045D0000F484FF4806120600F4860604FF48050B6
:1045E000A0600020C4E903010C21C4E90510E061CA
:1045F0002046FEF7CFFD1E2204F140012046FEF7C3
:10460000F1FE2068C16841F01001C16010BD0000DA
:10461000004C0040E4030020A086010010B50F4CC0
:104620000D480C2120604FF4613060600020A060D4
:10463000E060C4E90401A061E0612046FEF7AAFD44
:104640003C2204F1A4012046FEF7CCFE2068C1689C
:1046500041F01001C16010BD00440040C0020020C4
:10466000FEE70000012210210148FDF7CFB900004C
:10467000001001400E4810B5816986B041F010016C
:10468000816180690B4C00F01000049010200090B4
:104690000120019002200390002210212046FDF706
:1046A000B5F969462046FDF7B7F806B010BD000021
:1046B0000010024000100140002210210148FDF7C7
:1046C000A5B900000010014000224FF4005101483C
:1046D000FDF79CB9001001400E4810B5816986B005
:1046E00041F01001816180694FF4005100F0100029
:1046F00004900120CDE900100220074C0390002215
:104700002046FDF783F969462046FDF785F806B097
:1047100010BD0000001002400010014001225103B2
:104720000148FDF773B90000001001400122910318
:104730000148FDF76BB90000001001400E4810B5AC
:10474000816986B041F01001816180694FF4804138
:1047500000F0100004900120CDE900100220074C69
:10476000039000222046FDF751F969462046FDF7E7
:1047700053F806B010BD00000010024000100140C8
:1047800000224FF480410148FDF740B9001001407C
:1047900000224FF400410148FDF738B900100140F4
:1047A0000E4810B5816986B041F0100181618069C1
:1047B0004FF4004100F0100004900120CDE90010FA
:1047C0000220074C039000222046FDF71FF969469E
:1047D0002046FDF721F806B010BD00000010024091
:1047E000001001400122D1030148FDF70FB900007C
:1047F0000010014070470907090E002806DA00F092
:104800000F0000F1E02080F8141D704700F1E02057
:1048100080F80014704770B50025044605720180C9
:10482000084600F0DDFF60606572A572E57270BD3C
:1048300070470000F0B40A780F2A54D10A7E002A8B
:1048400051D12F4A002353804C7854808C7856885D
:1048500004F0070546EA052555809380E408948016
:10486000CC78968804F03F0546EA45159580D380BC
:10487000A409D4800C79D58845EA8404D4804C7985
:10488000D68804F0010546EA8525D58013816408A1
:1048900014818C79168904F00F0546EAC515158137
:1048A000538124095481CC79568904F07F0546EA66
:1048B000051555819381E40994810C7A958945EA1F
:1048C00044049481497A948901F0030144EA412126
:1048D0009181D188322908D203750A2111700360B1
:1048E00043608360C360F0BC7047117811B1491E0A
:1048F0001170F8E701210175F0BC00F003B8000069
:104900009C0000202DE9F05FDFF88CA10446BAF886
:104910000800624FDFF888B14FF461794FF07E569E
:1049200040F2064840F2FE65D22801D2384621E026
:10493000BAF80810504649450AD20089D238FBF728
:104940007FFE5946FBF7AAFC3146FBF76FFC11E0EE
:104950000189A94201D930460CE00289424508D9B3
:104960000089A0F20640FBF76BFE4E49FBF796FC70
:1049700000E0002080F000402060BAF80400D22857
:1049800001D2384621E0BAF80410504649450AD20F
:104990008088D238FBF754FE5946FBF77FFC31463E
:1049A000FBF744FC11E08188A94201D930460CE0B4
:1049B0008288424508D98088A0F20640FBF740FE75
:1049C0003849FBF76BFC00E000206060BAF8020099
:1049D000D22801D2384621E0BAF8021050464945A3
:1049E0000AD24088D238FBF72BFE5946FBF756FC1B
:1049F0003146FBF71BFC11E04188A94201D9304642
:104A00000CE04288424508D94088A0F20640FBF7F6
:104A100017FE2449FBF742FC00E00020A060BAF832
:104A20000600D22801D2384621E0BAF806105046D6
:104A300049450AD2C088D238FBF702FE5946FBF737
:104A40002DFC3146FBF7F2FB11E0C188A94201D9E8
:104A500030460CE0C288424508D9C088A0F2064022
:104A6000FBF7EEFD0F49FBF719FC00E0002080F09A
:104A70000040E060BAF80A105046D22901D2002165
:104A800005E04189A94201D9022100E001212174F8
:104A900080896082BDE8F09F9C000020000080BFFC
:104AA00000802C4400003E4470B50025044605807B
:104AB00045808580C180084600F092FEA060A581F7
:104AC000E581258265820120207570BD70B50023C7
:104AD0001FE08488C588AC4221D2CC5C46888568BA
:104AE000AC554488C588641CB4FBF5F605FB164438
:104AF0004480047D012C03D0047D022C04D006E008
:104B00008489641C848102E0048A641C04825B1C26
:104B10009BB29342DDD3934201D1012070BD0020AE
:104B200070BD704710B5FDF7C5FABDE81040FDF740
:104B300003BF30B595B001210804CDE90010002471
:104B4000029402250491CDE907504FF4E01009903A
:104B50006846FDF7DDFC00B1FEE70F20CDE90A0550
:104B60004FF48060CDE90C4002210AA80E94FDF7B5
:104B7000CDFB00B1FEE74FF4804011900F950FA8D8
:104B8000FDF750FB00B1FEE7FDF766FC4FF47A71CC
:104B9000B0FBF1F0FDF7BCFE0420FDF735FE00226E
:104BA0001146501EFDF70CFB15B030BD0D480168D5
:104BB00041F00101016041680B4A11404160016808
:104BC0000A4A11400160016821F4802101604168B6
:104BD00021F4FE0141604FF41F0181600449C003CC
:104BE00008607047001002400000FFF8FFFFF6FE6B
:104BF00008ED00E00148FEF729B80000500500204C
:104C00000148FEF723B80000900500200148FEF798
:104C10001DB80000100500200148FEF717B800007D
:104C2000D0050020F0B502681C4D1D4E1D4FDFF869
:104C300078C01E4B4FF0804EA84209D0984207D052
:104C4000704505D0B04203D0B84201D0604503D1D1
:104C500022F070044A682243A84209D0984207D043
:104C6000704505D0B04203D0B84201D0604503D1B1
:104C700022F44074CA6822434C6922F08002144333
:104C800004608A68C2620A688262A84201D09842BF
:104C900001D10969016301214161F0BD002C01408E
:104CA0000004004000080040000C004000340140B7
:104CB00010B50123046A8B409C430462036A8A4056
:104CC0001343036210BD0000F0B5026A22F0010236
:104CD0000262026A43688469114E24F073050C680D
:104CE000104F2C4322F002058A682A43B04201D0BB
:104CF000B84205D122F00805CA682A4322F004020E
:104D0000B04201D0B84205D14D6923F440731D4330
:104D10008B692B4343608461496841630262F0BD43
:104D2000002C014000340140F0B5026A22F010026C
:104D30000262026A436884690D6824F4E64444EA26
:104D400005248D6822F0200242EA05120F4D104E14
:104D5000A84201D0B04206D1CF6822F0800242EAD8
:104D6000071222F04002A84201D0B04207D14D699B
:104D700023F4406343EA85038D6943EA8503436076
:104D80008461496881630262F0BD0000002C01402B
:104D900000340140F0B5026A22F480720262026AB5
:104DA0004368C46922F4007224F073050C68124E43
:104DB0002C438D6842EA05220E4DA84201D0B04234
:104DC00006D1CF6822F4006242EA072222F4806210
:104DD000A84201D0B04207D14D6923F4405343EAC1
:104DE00005138D6943EA05134360C4614968C163D3
:104DF0000262F0BD002C01400034014030B5026A6F
:104E000022F480520262036A4268C4690D6824F485
:104E1000E64444EA05248D6823F4005343EA05334D
:104E2000084DA84202D0084DA84204D14D6922F491
:104E3000804242EA85124260C461496801640362AB
:104E400030BD0000002C014000340140064810B580
:104E500000680068C00602D5034800F0DFF9BDE82D
:104E600010400148FEF70EB9E403002010B5406A77
:104E70000021C185C184FEF7DEF810BD70B5446A1B
:104E80002068406994F83910C0F3C010002521292A
:104E900004D118B1E584204600F046F82068406946
:104EA00094F83A10C0F38010222904D118B1E58596
:104EB000204600F02BF8E06B40F01000E063204645
:104EC000FEF7B9F870BD10B50146406A0968096877
:104ED000890613D40021C1850168CA6822F4807252
:104EE000CA6001684A6922F001024A6101684A69A0
:104EF00022F040024A61202180F83A10FEF7BEFA03
:104F000010BD10B5406AFEF7BAFA10BD0168CA6854
:104F100022F49072CA6001684A6922F001024A6173
:104F2000202180F83A1070470168CA6822F0C00258
:104F3000CA60202180F83910704710B590F83A10F7
:104F4000222901D0022010BD8168B1F5805F11D007
:104F50000169002901681FD0496801F07F03816A57
:104F60004A1C82620B70C18D491E0904090CC1855F
:104F700018D02BE00269816A002A0268526805D0C5
:104F8000D2B20A80816A491C8162ECE7C2F308024E
:104F90000A80816A891CF7E74A68816A4B1C836230
:104FA0000A70E0E70168CA6822F02002CA6001685E
:104FB000CA6822F48072CA6001684A6922F001025C
:104FC0004A61202180F83A10FEF758FA002010BDFF
:104FD0002DE9F041044600680169E26821F440517E
:104FE00011430161A16820690143606901432068A0
:104FF000C26841F20C639A430A43C2602068416967
:10500000A26921F44071114341614C492068642632
:10501000322788423CD1FDF735FA00EBC00101EBA5
:10502000001061688900B0FBF1F5FDF72BFA00EB89
:10503000C00101EB00106168B8468900B0FBF1F0D7
:10504000B0FBF6F06FF01801484305EB800107EB69
:105050000110B0FBF6F000F0F005FDF713FA00EBDD
:10506000C00101EB001061688900B0FBF1F0B0FBFA
:10507000F6F005EB0015FDF705FA00EBC00101EBBA
:10508000001061688900B0FBF1F7FDF7FBF93BE028
:10509000FDF7E8F900EBC00101EB00106168890041
:1050A000B0FBF1F5FDF7DEF900EBC00101EB0010FC
:1050B0006168B8468900B0FBF1F0B0FBF6F06FF024
:1050C0001801484305EB800107EB0110B0FBF6F037
:1050D00000F0F005FDF7C6F900EBC00101EB001090
:1050E00061688900B0FBF1F0B0FBF6F005EB00154C
:1050F000FDF7B8F900EBC00101EB00106168890011
:10510000B0FBF1F7FDF7AEF900EBC00101EB0010C9
:1051100061688900B0FBF1F0B0FBF6F06FF01801A8
:10512000484307EB800108EB0110B0FBF6F0216863
:1051300000F00F0028448860BDE8F081003801408D
:1051400090F83910212901D0022070478168B1F50B
:10515000805F016A0BD04A1C0262026809785160C4
:10516000C18C491E0904090CC1840ED017E00988BE
:105170000268C1F30801516001690029016A02D087
:10518000491C0162ECE7891CFBE70168CA6822F050
:105190008002CA600068C16841F04001C16000201F
:1051A00070470000064810B500680068C00602D5C8
:1051B000034800F033F8BDE810400148FDF762BF36
:1051C000C002002070B5044608882080888860806E
:1051D0006088FBF73EFA05462088FBF73AFA0B4950
:1051E0000968FBF729F82946FBF758F80849FBF747
:1051F00023F8084988600846FEF77DFF6060606814
:105200000321FBF7DFFC207270BD00007800002056
:105210009A99F940F0000020FEE7000038B50168D7
:1052200004460868C043C00635D41B48814216D1E5
:105230000868486800900868486818480068456829
:105240002046FDF7CCFEC5F13C00144982B23C3942
:105250001348FFF73BFC11493C223C3916E011484A
:10526000814218D1086848680090086848680B486F
:10527000A430006840682046FDF7B1FE07490A489F
:105280008431FFF7D7FA05491E2284312046BDE854
:105290003840FEF7A7B838BD00440040A003002006
:1052A0000C020020004C0040FC0000202DE9F84FCB
:1052B00004464FF0FF352946BF48FBF73FFC29461F
:1052C000BE48FBF73BFC2946BD48FBF737FC0121F4
:1052D000BC48FBF733FCDFF8E0A2BAF906004EF653
:1052E00060214843FBF7ACF9B74D2946FAF7D6FFE2
:1052F000B64E3146FAF7D2FF2060DFF8C0B2BBF9F4
:1053000006004EF660214843FBF79AF92946FAF762
:10531000C5FF3146FAF7C2FF6060A948B0F9060040
:105320004EF660214843FBF78BF92946FAF7B6FFA2
:105330003146FAF7B3FFA060A248B0F906004EF676
:1053400060214843FBF77CF92946FAF7A7FF31466D
:10535000FAF7A4FFE0602169DFF874C29D48614557
:1053600001D9614605E02269824201DD014600E083
:10537000216921616169614501D9624605E0616980
:10538000814201DD024600E062696261A169614516
:1053900001D9634605E0A169814201DD034600E0D1
:1053A000A369A361E2698C4E8C4D06F1040808F1F3
:1053B000040909F10407624501D9604603E0E26986
:1053C000824200DCE069E0612069854920F000400C
:1053D000FBF7A0F923D26069814920F00040FBF778
:1053E00099F91CD2A0697E4920F00040FBF792F9A0
:1053F00015D2E0697A4920F00040FBF78BF90ED214
:105400000020E860A860686028604FF4FA603060AF
:10541000C8F80000C9F800003860BDE8F88F2069BE
:105420007049FAF709FF0090BAF90600FBF708F98E
:1054300001466D48009AFEF7DBFB2968FAF7A4FEE7
:10544000286060696749FAF7F7FE8246BBF90600F3
:10545000FBF7F6F8014652466448FEF7C9FB696857
:10546000FAF792FE6860A0695E49FAF7E5FE8246A7
:105470005348B0F90600FBF7E3F8014652465C4892
:10548000FEF7B6FBA968FAF77FFEA860E069554908
:10549000FAF7D2FE04464B48B0F90600FBF7D0F805
:1054A000014622465348FEF7A3FBE968FAF76CFE73
:1054B0000146E860504B2868504C984201D9184684
:1054C00002E0A04200DD204628606A689A4201D9C5
:1054D0001A4602E0A24200DD22466A60AA689A42A9
:1054E00001D91A4602E0A24200DD2246AA60994292
:1054F00001D9194602E0A14200DD21464FF4000A1D
:10550000E960504509DB01462046FAF78FFEFBF7BC
:10551000A5F83860FFF7D0F807E02146FAF734FE27
:10552000FBF79CF83860FFF79DF868685746B8426B
:105530000ADB01462046FAF779FEFBF78FF8C9F837
:105540000000FFF7EBF808E02146FAF71DFEFBF735
:1055500085F8C9F80000FFF7B7F8A868B8420ADB79
:1055600001462046FAF762FEFBF778F8C8F800001B
:10557000FFF706F908E02146FAF706FEFBF76EF89A
:10558000C8F80000FFF7D2F8E868B8420ADB014625
:105590002046FAF74BFEFBF761F83060BDE8F84FA4
:1055A000FFF720B92146FAF7EFFDFBF757F8306017
:1055B000BDE8F84FFFF7ECB884010020900100200F
:1055C0009C010020A8010020000020410000A5440B
:1055D0000000A5C30000A543343401407C00002036
:1055E0000AD7A33BAE47613E240100203C010020C6
:1055F000540100206C0100200000FAC40000FA44AD
:1056000002E008C8121F08C1002AFAD1704770478B
:10561000002001E001C1121F002AFBD170470000E9
:105620001CB5FEF765FB604F4FF47A70B860DFF889
:105630007C81DFF87CA1DFF87CB15F4C4FF07E59B4
:105640000026B86870B932210220FEF7EFFC322143
:105650000320FBF7C9F9C7E9066940F2DC50F8609E
:10566000C7F80880F86870B932210220FEF77EFC86
:1056700032210220FBF7B8F9BE614FF4FA60FE61F7
:105680007861C7F80C80786970B932210220FEF782
:105690006DFC64210220FBF7A7F9C7E906694FF406
:1056A0007A603861C7F81480386960B93221022005
:1056B000FEF7BCFC64210320FBF796F90021396258
:1056C0007962C7F810807888002853D1386A796ADF
:1056D00008430DD0CAF80090CBF800903749C1F8C4
:1056E0000090B8692060F86980F00040606010E0C8
:1056F00032210220FEF73AFC3148CAF80000CBF80C
:1057000000002E4908602F488660466006602660CB
:105710006660A6602168CAF808102548FEF7EBFC11
:1057200020606168CBF808102248FEF7E4FC606056
:10573000A16822488160FEF7DEFCA0601E48FEF7EB
:105740007DFBE068204D2861206968616069A8617F
:10575000A069E8612846FFF7A9FD29681B48C160D8
:1057600069680161A9684161E9688161FEF7B0FB80
:105770000A207880388858B90E211548CDE90001F3
:1057800001233B22D0211348FCF77AFB0520388007
:10579000B88800287FF455AF0F491048FFF712FD75
:1057A0004FF4FA70B8804CE70000002040420F0030
:1057B000C0000020CC000020D4010020D800002030
:1057C000CDCCCC3DB4000020B4010020F00100207D
:1057D000700200208406002040000020E400002029
:1057E000F0B50B30154D20F007010024144A0FE0EE
:1057F00003688B420BD38B4205D95E1A4318476866
:10580000C3E9006700E04368136002C004E0021DC2
:1058100010680028ECD12046002802D1286808B181
:105820000020F0BD064A07481060074A121A22F00D
:105830000702C0E9002401202860D7E7B00000205B
:10584000AC000020DC060020E82D00200000000055
:105850000000000001020304060708090000000020
:10586000010203048458000800000020B400000076
:105870000056000838590008B400002034310000F8
:10588000105600080000000000000000A086010083
:10589000A0860100A0860100A08601000000803FD4
:1058A0000000000040420F00000000000000000067
:1058B000A0860100A0860100A0860100A08601004C
:1058C000A0860100000000000000000000000000B1
:1058D00000000000000000000000000000000000C8
:1058E00000000000000000000000000000000000B8
:1058F0000000000000000000000000009A99993F9D
:105900000000000000000000000000000000000097
:1059100001000000100000000000000000A24A0486
:105920000A0000000000000000000000000000006D
:0859300000000000000000006F
:0400000508000131BD
:00000001FF
